{
  "_format": "hh-sol-artifact-1",
  "contractName": "Polygonum",
  "sourceName": "contracts/Polygonum.sol",
  "abi": [
    {
      "inputs": [],
      "stateMutability": "nonpayable",
      "type": "constructor"
    },
    {
      "anonymous": false,
      "inputs": [
        {
          "indexed": true,
          "internalType": "address",
          "name": "owner",
          "type": "address"
        },
        {
          "indexed": true,
          "internalType": "address",
          "name": "approved",
          "type": "address"
        },
        {
          "indexed": true,
          "internalType": "uint256",
          "name": "tokenId",
          "type": "uint256"
        }
      ],
      "name": "Approval",
      "type": "event"
    },
    {
      "anonymous": false,
      "inputs": [
        {
          "indexed": true,
          "internalType": "address",
          "name": "owner",
          "type": "address"
        },
        {
          "indexed": true,
          "internalType": "address",
          "name": "operator",
          "type": "address"
        },
        {
          "indexed": false,
          "internalType": "bool",
          "name": "approved",
          "type": "bool"
        }
      ],
      "name": "ApprovalForAll",
      "type": "event"
    },
    {
      "anonymous": false,
      "inputs": [
        {
          "indexed": true,
          "internalType": "address",
          "name": "previousOwner",
          "type": "address"
        },
        {
          "indexed": true,
          "internalType": "address",
          "name": "newOwner",
          "type": "address"
        }
      ],
      "name": "OwnershipTransferred",
      "type": "event"
    },
    {
      "anonymous": false,
      "inputs": [
        {
          "indexed": true,
          "internalType": "address",
          "name": "from",
          "type": "address"
        },
        {
          "indexed": true,
          "internalType": "address",
          "name": "to",
          "type": "address"
        },
        {
          "indexed": true,
          "internalType": "uint256",
          "name": "tokenId",
          "type": "uint256"
        }
      ],
      "name": "Transfer",
      "type": "event"
    },
    {
      "inputs": [
        {
          "internalType": "address",
          "name": "to",
          "type": "address"
        },
        {
          "internalType": "uint256",
          "name": "tokenId",
          "type": "uint256"
        }
      ],
      "name": "approve",
      "outputs": [],
      "stateMutability": "nonpayable",
      "type": "function"
    },
    {
      "inputs": [
        {
          "internalType": "address",
          "name": "owner",
          "type": "address"
        }
      ],
      "name": "balanceOf",
      "outputs": [
        {
          "internalType": "uint256",
          "name": "",
          "type": "uint256"
        }
      ],
      "stateMutability": "view",
      "type": "function"
    },
    {
      "inputs": [],
      "name": "buyToken",
      "outputs": [],
      "stateMutability": "payable",
      "type": "function"
    },
    {
      "inputs": [
        {
          "internalType": "uint256",
          "name": "tokenId",
          "type": "uint256"
        }
      ],
      "name": "getApproved",
      "outputs": [
        {
          "internalType": "address",
          "name": "",
          "type": "address"
        }
      ],
      "stateMutability": "view",
      "type": "function"
    },
    {
      "inputs": [
        {
          "internalType": "address",
          "name": "owner",
          "type": "address"
        },
        {
          "internalType": "address",
          "name": "operator",
          "type": "address"
        }
      ],
      "name": "isApprovedForAll",
      "outputs": [
        {
          "internalType": "bool",
          "name": "",
          "type": "bool"
        }
      ],
      "stateMutability": "view",
      "type": "function"
    },
    {
      "inputs": [],
      "name": "name",
      "outputs": [
        {
          "internalType": "string",
          "name": "",
          "type": "string"
        }
      ],
      "stateMutability": "view",
      "type": "function"
    },
    {
      "inputs": [],
      "name": "owner",
      "outputs": [
        {
          "internalType": "address",
          "name": "",
          "type": "address"
        }
      ],
      "stateMutability": "view",
      "type": "function"
    },
    {
      "inputs": [
        {
          "internalType": "uint256",
          "name": "tokenId",
          "type": "uint256"
        }
      ],
      "name": "ownerOf",
      "outputs": [
        {
          "internalType": "address",
          "name": "",
          "type": "address"
        }
      ],
      "stateMutability": "view",
      "type": "function"
    },
    {
      "inputs": [],
      "name": "renounceOwnership",
      "outputs": [],
      "stateMutability": "nonpayable",
      "type": "function"
    },
    {
      "inputs": [
        {
          "internalType": "address",
          "name": "to",
          "type": "address"
        }
      ],
      "name": "safeMint",
      "outputs": [],
      "stateMutability": "nonpayable",
      "type": "function"
    },
    {
      "inputs": [
        {
          "internalType": "address",
          "name": "from",
          "type": "address"
        },
        {
          "internalType": "address",
          "name": "to",
          "type": "address"
        },
        {
          "internalType": "uint256",
          "name": "tokenId",
          "type": "uint256"
        }
      ],
      "name": "safeTransferFrom",
      "outputs": [],
      "stateMutability": "nonpayable",
      "type": "function"
    },
    {
      "inputs": [
        {
          "internalType": "address",
          "name": "from",
          "type": "address"
        },
        {
          "internalType": "address",
          "name": "to",
          "type": "address"
        },
        {
          "internalType": "uint256",
          "name": "tokenId",
          "type": "uint256"
        },
        {
          "internalType": "bytes",
          "name": "data",
          "type": "bytes"
        }
      ],
      "name": "safeTransferFrom",
      "outputs": [],
      "stateMutability": "nonpayable",
      "type": "function"
    },
    {
      "inputs": [
        {
          "internalType": "address",
          "name": "operator",
          "type": "address"
        },
        {
          "internalType": "bool",
          "name": "approved",
          "type": "bool"
        }
      ],
      "name": "setApprovalForAll",
      "outputs": [],
      "stateMutability": "nonpayable",
      "type": "function"
    },
    {
      "inputs": [
        {
          "internalType": "bytes4",
          "name": "interfaceId",
          "type": "bytes4"
        }
      ],
      "name": "supportsInterface",
      "outputs": [
        {
          "internalType": "bool",
          "name": "",
          "type": "bool"
        }
      ],
      "stateMutability": "view",
      "type": "function"
    },
    {
      "inputs": [],
      "name": "symbol",
      "outputs": [
        {
          "internalType": "string",
          "name": "",
          "type": "string"
        }
      ],
      "stateMutability": "view",
      "type": "function"
    },
    {
      "inputs": [
        {
          "internalType": "uint256",
          "name": "tokenId",
          "type": "uint256"
        }
      ],
      "name": "tokenURI",
      "outputs": [
        {
          "internalType": "string",
          "name": "",
          "type": "string"
        }
      ],
      "stateMutability": "pure",
      "type": "function"
    },
    {
      "inputs": [
        {
          "internalType": "address",
          "name": "from",
          "type": "address"
        },
        {
          "internalType": "address",
          "name": "to",
          "type": "address"
        },
        {
          "internalType": "uint256",
          "name": "tokenId",
          "type": "uint256"
        }
      ],
      "name": "transferFrom",
      "outputs": [],
      "stateMutability": "nonpayable",
      "type": "function"
    },
    {
      "inputs": [
        {
          "internalType": "address",
          "name": "newOwner",
          "type": "address"
        }
      ],
      "name": "transferOwnership",
      "outputs": [],
      "stateMutability": "nonpayable",
      "type": "function"
    },
    {
      "stateMutability": "payable",
      "type": "receive"
    }
  ],
  "bytecode": "0x60806040523480156200001157600080fd5b506040518060400160405280600981526020017f506f6c79676f6e756d00000000000000000000000000000000000000000000008152506040518060400160405280600381526020017f504c47000000000000000000000000000000000000000000000000000000000081525081600090816200008f919062000412565b508060019081620000a1919062000412565b505050620000c4620000b8620000ca60201b60201c565b620000d260201b60201c565b620004f9565b600033905090565b6000600660009054906101000a900473ffffffffffffffffffffffffffffffffffffffff16905081600660006101000a81548173ffffffffffffffffffffffffffffffffffffffff021916908373ffffffffffffffffffffffffffffffffffffffff1602179055508173ffffffffffffffffffffffffffffffffffffffff168173ffffffffffffffffffffffffffffffffffffffff167f8be0079c531659141344cd1fd0a4f28419497f9722a3daafe3b4186f6b6457e060405160405180910390a35050565b600081519050919050565b7f4e487b7100000000000000000000000000000000000000000000000000000000600052604160045260246000fd5b7f4e487b7100000000000000000000000000000000000000000000000000000000600052602260045260246000fd5b600060028204905060018216806200021a57607f821691505b60208210810362000230576200022f620001d2565b5b50919050565b60008190508160005260206000209050919050565b60006020601f8301049050919050565b600082821b905092915050565b6000600883026200029a7fffffffffffffffffffffffffffffffffffffffffffffffffffffffffffffffff826200025b565b620002a686836200025b565b95508019841693508086168417925050509392505050565b6000819050919050565b6000819050919050565b6000620002f3620002ed620002e784620002be565b620002c8565b620002be565b9050919050565b6000819050919050565b6200030f83620002d2565b620003276200031e82620002fa565b84845462000268565b825550505050565b600090565b6200033e6200032f565b6200034b81848462000304565b505050565b5b8181101562000373576200036760008262000334565b60018101905062000351565b5050565b601f821115620003c2576200038c8162000236565b62000397846200024b565b81016020851015620003a7578190505b620003bf620003b6856200024b565b83018262000350565b50505b505050565b600082821c905092915050565b6000620003e760001984600802620003c7565b1980831691505092915050565b6000620004028383620003d4565b9150826002028217905092915050565b6200041d8262000198565b67ffffffffffffffff811115620004395762000438620001a3565b5b62000445825462000201565b6200045282828562000377565b600060209050601f8311600181146200048a576000841562000475578287015190505b620004818582620003f4565b865550620004f1565b601f1984166200049a8662000236565b60005b82811015620004c4578489015182556001820191506020850194506020810190506200049d565b86831015620004e45784890151620004e0601f891682620003d4565b8355505b6001600288020188555050505b505050505050565b612a8080620005096000396000f3fe60806040526004361061010d5760003560e01c8063715018a611610095578063a482171911610064578063a482171914610372578063b88d4fde1461037c578063c87b56dd146103a5578063e985e9c5146103e2578063f2fde38b1461041f57610114565b8063715018a6146102dc5780638da5cb5b146102f357806395d89b411461031e578063a22cb4651461034957610114565b806323b872dd116100dc57806323b872dd146101e757806340d097c31461021057806342842e0e146102395780636352211e1461026257806370a082311461029f57610114565b806301ffc9a71461011957806306fdde0314610156578063081812fc14610181578063095ea7b3146101be57610114565b3661011457005b600080fd5b34801561012557600080fd5b50610140600480360381019061013b9190611ad7565b610448565b60405161014d9190611b1f565b60405180910390f35b34801561016257600080fd5b5061016b61052a565b6040516101789190611bca565b60405180910390f35b34801561018d57600080fd5b506101a860048036038101906101a39190611c22565b6105bc565b6040516101b59190611c90565b60405180910390f35b3480156101ca57600080fd5b506101e560048036038101906101e09190611cd7565b610602565b005b3480156101f357600080fd5b5061020e60048036038101906102099190611d17565b610719565b005b34801561021c57600080fd5b5061023760048036038101906102329190611d6a565b610779565b005b34801561024557600080fd5b50610260600480360381019061025b9190611d17565b6107a7565b005b34801561026e57600080fd5b5061028960048036038101906102849190611c22565b6107c7565b6040516102969190611c90565b60405180910390f35b3480156102ab57600080fd5b506102c660048036038101906102c19190611d6a565b61084d565b6040516102d39190611da6565b60405180910390f35b3480156102e857600080fd5b506102f1610904565b005b3480156102ff57600080fd5b50610308610918565b6040516103159190611c90565b60405180910390f35b34801561032a57600080fd5b50610333610942565b6040516103409190611bca565b60405180910390f35b34801561035557600080fd5b50610370600480360381019061036b9190611ded565b6109d4565b005b61037a6109ea565b005b34801561038857600080fd5b506103a3600480360381019061039e9190611f62565b610a59565b005b3480156103b157600080fd5b506103cc60048036038101906103c79190611c22565b610abb565b6040516103d99190611bca565b60405180910390f35b3480156103ee57600080fd5b5061040960048036038101906104049190611fe5565b610af9565b6040516104169190611b1f565b60405180910390f35b34801561042b57600080fd5b5061044660048036038101906104419190611d6a565b610b8d565b005b60007f80ac58cd000000000000000000000000000000000000000000000000000000007bffffffffffffffffffffffffffffffffffffffffffffffffffffffff1916827bffffffffffffffffffffffffffffffffffffffffffffffffffffffff1916148061051357507f5b5e139f000000000000000000000000000000000000000000000000000000007bffffffffffffffffffffffffffffffffffffffffffffffffffffffff1916827bffffffffffffffffffffffffffffffffffffffffffffffffffffffff1916145b80610523575061052282610c10565b5b9050919050565b60606000805461053990612054565b80601f016020809104026020016040519081016040528092919081815260200182805461056590612054565b80156105b25780601f10610587576101008083540402835291602001916105b2565b820191906000526020600020905b81548152906001019060200180831161059557829003601f168201915b5050505050905090565b60006105c782610c7a565b6004600083815260200190815260200160002060009054906101000a900473ffffffffffffffffffffffffffffffffffffffff169050919050565b600061060d826107c7565b90508073ffffffffffffffffffffffffffffffffffffffff168373ffffffffffffffffffffffffffffffffffffffff160361067d576040517f08c379a0000000000000000000000000000000000000000000000000000000008152600401610674906120f7565b60405180910390fd5b8073ffffffffffffffffffffffffffffffffffffffff1661069c610cc5565b73ffffffffffffffffffffffffffffffffffffffff1614806106cb57506106ca816106c5610cc5565b610af9565b5b61070a576040517f08c379a000000000000000000000000000000000000000000000000000000000815260040161070190612189565b60405180910390fd5b6107148383610ccd565b505050565b61072a610724610cc5565b82610d86565b610769576040517f08c379a00000000000000000000000000000000000000000000000000000000081526004016107609061221b565b60405180910390fd5b610774838383610e1b565b505050565b610781611114565b600061078d6007611192565b905061079960076111a0565b6107a382826111b6565b5050565b6107c283838360405180602001604052806000815250610a59565b505050565b6000806107d3836111d4565b9050600073ffffffffffffffffffffffffffffffffffffffff168173ffffffffffffffffffffffffffffffffffffffff1603610844576040517f08c379a000000000000000000000000000000000000000000000000000000000815260040161083b90612287565b60405180910390fd5b80915050919050565b60008073ffffffffffffffffffffffffffffffffffffffff168273ffffffffffffffffffffffffffffffffffffffff16036108bd576040517f08c379a00000000000000000000000000000000000000000000000000000000081526004016108b490612319565b60405180910390fd5b600360008373ffffffffffffffffffffffffffffffffffffffff1673ffffffffffffffffffffffffffffffffffffffff168152602001908152602001600020549050919050565b61090c611114565b6109166000611211565b565b6000600660009054906101000a900473ffffffffffffffffffffffffffffffffffffffff16905090565b60606001805461095190612054565b80601f016020809104026020016040519081016040528092919081815260200182805461097d90612054565b80156109ca5780601f1061099f576101008083540402835291602001916109ca565b820191906000526020600020905b8154815290600101906020018083116109ad57829003601f168201915b5050505050905090565b6109e66109df610cc5565b83836112d7565b5050565b60006109f66007611192565b905067016345785d8a00003414610a42576040517f08c379a0000000000000000000000000000000000000000000000000000000008152600401610a3990612385565b60405180910390fd5b610a4c60076111a0565b610a5633826111b6565b50565b610a6a610a64610cc5565b83610d86565b610aa9576040517f08c379a0000000000000000000000000000000000000000000000000000000008152600401610aa09061221b565b60405180910390fd5b610ab584848484611443565b50505050565b6060610ac561149f565b600183610ad291906123d4565b604051602001610ae39291906124fd565b6040516020818303038152906040529050919050565b6000600560008473ffffffffffffffffffffffffffffffffffffffff1673ffffffffffffffffffffffffffffffffffffffff16815260200190815260200160002060008373ffffffffffffffffffffffffffffffffffffffff1673ffffffffffffffffffffffffffffffffffffffff16815260200190815260200160002060009054906101000a900460ff16905092915050565b610b95611114565b600073ffffffffffffffffffffffffffffffffffffffff168173ffffffffffffffffffffffffffffffffffffffff1603610c04576040517f08c379a0000000000000000000000000000000000000000000000000000000008152600401610bfb906125ad565b60405180910390fd5b610c0d81611211565b50565b60007f01ffc9a7000000000000000000000000000000000000000000000000000000007bffffffffffffffffffffffffffffffffffffffffffffffffffffffff1916827bffffffffffffffffffffffffffffffffffffffffffffffffffffffff1916149050919050565b610c83816114dc565b610cc2576040517f08c379a0000000000000000000000000000000000000000000000000000000008152600401610cb990612287565b60405180910390fd5b50565b600033905090565b816004600083815260200190815260200160002060006101000a81548173ffffffffffffffffffffffffffffffffffffffff021916908373ffffffffffffffffffffffffffffffffffffffff160217905550808273ffffffffffffffffffffffffffffffffffffffff16610d40836107c7565b73ffffffffffffffffffffffffffffffffffffffff167f8c5be1e5ebec7d5bd14f71427d1e84f3dd0314c0f7b2291e5b200ac8c7c3b92560405160405180910390a45050565b600080610d92836107c7565b90508073ffffffffffffffffffffffffffffffffffffffff168473ffffffffffffffffffffffffffffffffffffffff161480610dd45750610dd38185610af9565b5b80610e1257508373ffffffffffffffffffffffffffffffffffffffff16610dfa846105bc565b73ffffffffffffffffffffffffffffffffffffffff16145b91505092915050565b8273ffffffffffffffffffffffffffffffffffffffff16610e3b826107c7565b73ffffffffffffffffffffffffffffffffffffffff1614610e91576040517f08c379a0000000000000000000000000000000000000000000000000000000008152600401610e889061263f565b60405180910390fd5b600073ffffffffffffffffffffffffffffffffffffffff168273ffffffffffffffffffffffffffffffffffffffff1603610f00576040517f08c379a0000000000000000000000000000000000000000000000000000000008152600401610ef7906126d1565b60405180910390fd5b610f0d838383600161151d565b8273ffffffffffffffffffffffffffffffffffffffff16610f2d826107c7565b73ffffffffffffffffffffffffffffffffffffffff1614610f83576040517f08c379a0000000000000000000000000000000000000000000000000000000008152600401610f7a9061263f565b60405180910390fd5b6004600082815260200190815260200160002060006101000a81549073ffffffffffffffffffffffffffffffffffffffff02191690556001600360008573ffffffffffffffffffffffffffffffffffffffff1673ffffffffffffffffffffffffffffffffffffffff168152602001908152602001600020600082825403925050819055506001600360008473ffffffffffffffffffffffffffffffffffffffff1673ffffffffffffffffffffffffffffffffffffffff16815260200190815260200160002060008282540192505081905550816002600083815260200190815260200160002060006101000a81548173ffffffffffffffffffffffffffffffffffffffff021916908373ffffffffffffffffffffffffffffffffffffffff160217905550808273ffffffffffffffffffffffffffffffffffffffff168473ffffffffffffffffffffffffffffffffffffffff167fddf252ad1be2c89b69c2b068fc378daa952ba7f163c4a11628f55a4df523b3ef60405160405180910390a461110f8383836001611643565b505050565b61111c610cc5565b73ffffffffffffffffffffffffffffffffffffffff1661113a610918565b73ffffffffffffffffffffffffffffffffffffffff1614611190576040517f08c379a00000000000000000000000000000000000000000000000000000000081526004016111879061273d565b60405180910390fd5b565b600081600001549050919050565b6001816000016000828254019250508190555050565b6111d0828260405180602001604052806000815250611649565b5050565b60006002600083815260200190815260200160002060009054906101000a900473ffffffffffffffffffffffffffffffffffffffff169050919050565b6000600660009054906101000a900473ffffffffffffffffffffffffffffffffffffffff16905081600660006101000a81548173ffffffffffffffffffffffffffffffffffffffff021916908373ffffffffffffffffffffffffffffffffffffffff1602179055508173ffffffffffffffffffffffffffffffffffffffff168173ffffffffffffffffffffffffffffffffffffffff167f8be0079c531659141344cd1fd0a4f28419497f9722a3daafe3b4186f6b6457e060405160405180910390a35050565b8173ffffffffffffffffffffffffffffffffffffffff168373ffffffffffffffffffffffffffffffffffffffff1603611345576040517f08c379a000000000000000000000000000000000000000000000000000000000815260040161133c906127a9565b60405180910390fd5b80600560008573ffffffffffffffffffffffffffffffffffffffff1673ffffffffffffffffffffffffffffffffffffffff16815260200190815260200160002060008473ffffffffffffffffffffffffffffffffffffffff1673ffffffffffffffffffffffffffffffffffffffff16815260200190815260200160002060006101000a81548160ff0219169083151502179055508173ffffffffffffffffffffffffffffffffffffffff168373ffffffffffffffffffffffffffffffffffffffff167f17307eab39ab6107e8899845ad3d59bd9653f200f220920489ca2b5937696c31836040516114369190611b1f565b60405180910390a3505050565b61144e848484610e1b565b61145a848484846116a4565b611499576040517f08c379a00000000000000000000000000000000000000000000000000000000081526004016114909061283b565b60405180910390fd5b50505050565b60606040518060400160405280601b81526020017f68747470733a2f2f737572662d35633338642e7765622e6170702f0000000000815250905090565b60008073ffffffffffffffffffffffffffffffffffffffff166114fe836111d4565b73ffffffffffffffffffffffffffffffffffffffff1614159050919050565b600181111561163d57600073ffffffffffffffffffffffffffffffffffffffff168473ffffffffffffffffffffffffffffffffffffffff16146115b15780600360008673ffffffffffffffffffffffffffffffffffffffff1673ffffffffffffffffffffffffffffffffffffffff16815260200190815260200160002060008282546115a9919061285b565b925050819055505b600073ffffffffffffffffffffffffffffffffffffffff168373ffffffffffffffffffffffffffffffffffffffff161461163c5780600360008573ffffffffffffffffffffffffffffffffffffffff1673ffffffffffffffffffffffffffffffffffffffff168152602001908152602001600020600082825461163491906123d4565b925050819055505b5b50505050565b50505050565b611653838361182b565b61166060008484846116a4565b61169f576040517f08c379a00000000000000000000000000000000000000000000000000000000081526004016116969061283b565b60405180910390fd5b505050565b60006116c58473ffffffffffffffffffffffffffffffffffffffff16611a48565b1561181e578373ffffffffffffffffffffffffffffffffffffffff1663150b7a026116ee610cc5565b8786866040518563ffffffff1660e01b815260040161171094939291906128e4565b6020604051808303816000875af192505050801561174c57506040513d601f19601f820116820180604052508101906117499190612945565b60015b6117ce573d806000811461177c576040519150601f19603f3d011682016040523d82523d6000602084013e611781565b606091505b5060008151036117c6576040517f08c379a00000000000000000000000000000000000000000000000000000000081526004016117bd9061283b565b60405180910390fd5b805181602001fd5b63150b7a0260e01b7bffffffffffffffffffffffffffffffffffffffffffffffffffffffff1916817bffffffffffffffffffffffffffffffffffffffffffffffffffffffff191614915050611823565b600190505b949350505050565b600073ffffffffffffffffffffffffffffffffffffffff168273ffffffffffffffffffffffffffffffffffffffff160361189a576040517f08c379a0000000000000000000000000000000000000000000000000000000008152600401611891906129be565b60405180910390fd5b6118a3816114dc565b156118e3576040517f08c379a00000000000000000000000000000000000000000000000000000000081526004016118da90612a2a565b60405180910390fd5b6118f160008383600161151d565b6118fa816114dc565b1561193a576040517f08c379a000000000000000000000000000000000000000000000000000000000815260040161193190612a2a565b60405180910390fd5b6001600360008473ffffffffffffffffffffffffffffffffffffffff1673ffffffffffffffffffffffffffffffffffffffff16815260200190815260200160002060008282540192505081905550816002600083815260200190815260200160002060006101000a81548173ffffffffffffffffffffffffffffffffffffffff021916908373ffffffffffffffffffffffffffffffffffffffff160217905550808273ffffffffffffffffffffffffffffffffffffffff16600073ffffffffffffffffffffffffffffffffffffffff167fddf252ad1be2c89b69c2b068fc378daa952ba7f163c4a11628f55a4df523b3ef60405160405180910390a4611a44600083836001611643565b5050565b6000808273ffffffffffffffffffffffffffffffffffffffff163b119050919050565b6000604051905090565b600080fd5b600080fd5b60007fffffffff0000000000000000000000000000000000000000000000000000000082169050919050565b611ab481611a7f565b8114611abf57600080fd5b50565b600081359050611ad181611aab565b92915050565b600060208284031215611aed57611aec611a75565b5b6000611afb84828501611ac2565b91505092915050565b60008115159050919050565b611b1981611b04565b82525050565b6000602082019050611b346000830184611b10565b92915050565b600081519050919050565b600082825260208201905092915050565b60005b83811015611b74578082015181840152602081019050611b59565b60008484015250505050565b6000601f19601f8301169050919050565b6000611b9c82611b3a565b611ba68185611b45565b9350611bb6818560208601611b56565b611bbf81611b80565b840191505092915050565b60006020820190508181036000830152611be48184611b91565b905092915050565b6000819050919050565b611bff81611bec565b8114611c0a57600080fd5b50565b600081359050611c1c81611bf6565b92915050565b600060208284031215611c3857611c37611a75565b5b6000611c4684828501611c0d565b91505092915050565b600073ffffffffffffffffffffffffffffffffffffffff82169050919050565b6000611c7a82611c4f565b9050919050565b611c8a81611c6f565b82525050565b6000602082019050611ca56000830184611c81565b92915050565b611cb481611c6f565b8114611cbf57600080fd5b50565b600081359050611cd181611cab565b92915050565b60008060408385031215611cee57611ced611a75565b5b6000611cfc85828601611cc2565b9250506020611d0d85828601611c0d565b9150509250929050565b600080600060608486031215611d3057611d2f611a75565b5b6000611d3e86828701611cc2565b9350506020611d4f86828701611cc2565b9250506040611d6086828701611c0d565b9150509250925092565b600060208284031215611d8057611d7f611a75565b5b6000611d8e84828501611cc2565b91505092915050565b611da081611bec565b82525050565b6000602082019050611dbb6000830184611d97565b92915050565b611dca81611b04565b8114611dd557600080fd5b50565b600081359050611de781611dc1565b92915050565b60008060408385031215611e0457611e03611a75565b5b6000611e1285828601611cc2565b9250506020611e2385828601611dd8565b9150509250929050565b600080fd5b600080fd5b7f4e487b7100000000000000000000000000000000000000000000000000000000600052604160045260246000fd5b611e6f82611b80565b810181811067ffffffffffffffff82111715611e8e57611e8d611e37565b5b80604052505050565b6000611ea1611a6b565b9050611ead8282611e66565b919050565b600067ffffffffffffffff821115611ecd57611ecc611e37565b5b611ed682611b80565b9050602081019050919050565b82818337600083830152505050565b6000611f05611f0084611eb2565b611e97565b905082815260208101848484011115611f2157611f20611e32565b5b611f2c848285611ee3565b509392505050565b600082601f830112611f4957611f48611e2d565b5b8135611f59848260208601611ef2565b91505092915050565b60008060008060808587031215611f7c57611f7b611a75565b5b6000611f8a87828801611cc2565b9450506020611f9b87828801611cc2565b9350506040611fac87828801611c0d565b925050606085013567ffffffffffffffff811115611fcd57611fcc611a7a565b5b611fd987828801611f34565b91505092959194509250565b60008060408385031215611ffc57611ffb611a75565b5b600061200a85828601611cc2565b925050602061201b85828601611cc2565b9150509250929050565b7f4e487b7100000000000000000000000000000000000000000000000000000000600052602260045260246000fd5b6000600282049050600182168061206c57607f821691505b60208210810361207f5761207e612025565b5b50919050565b7f4552433732313a20617070726f76616c20746f2063757272656e74206f776e6560008201527f7200000000000000000000000000000000000000000000000000000000000000602082015250565b60006120e1602183611b45565b91506120ec82612085565b604082019050919050565b60006020820190508181036000830152612110816120d4565b9050919050565b7f4552433732313a20617070726f76652063616c6c6572206973206e6f7420746f60008201527f6b656e206f776e6572206f7220617070726f76656420666f7220616c6c000000602082015250565b6000612173603d83611b45565b915061217e82612117565b604082019050919050565b600060208201905081810360008301526121a281612166565b9050919050565b7f4552433732313a2063616c6c6572206973206e6f7420746f6b656e206f776e6560008201527f72206f7220617070726f76656400000000000000000000000000000000000000602082015250565b6000612205602d83611b45565b9150612210826121a9565b604082019050919050565b60006020820190508181036000830152612234816121f8565b9050919050565b7f4552433732313a20696e76616c696420746f6b656e2049440000000000000000600082015250565b6000612271601883611b45565b915061227c8261223b565b602082019050919050565b600060208201905081810360008301526122a081612264565b9050919050565b7f4552433732313a2061646472657373207a65726f206973206e6f74206120766160008201527f6c6964206f776e65720000000000000000000000000000000000000000000000602082015250565b6000612303602983611b45565b915061230e826122a7565b604082019050919050565b60006020820190508181036000830152612332816122f6565b9050919050565b7f57726f6e6720616d6f756e742073656e74000000000000000000000000000000600082015250565b600061236f601183611b45565b915061237a82612339565b602082019050919050565b6000602082019050818103600083015261239e81612362565b9050919050565b7f4e487b7100000000000000000000000000000000000000000000000000000000600052601160045260246000fd5b60006123df82611bec565b91506123ea83611bec565b9250828201905080821115612402576124016123a5565b5b92915050565b600081905092915050565b600061241e82611b3a565b6124288185612408565b9350612438818560208601611b56565b80840191505092915050565b7f706f6c79676f6e756d5f00000000000000000000000000000000000000000000600082015250565b600061247a600a83612408565b915061248582612444565b600a82019050919050565b6000819050919050565b6124ab6124a682611bec565b612490565b82525050565b7f2e6a736f6e000000000000000000000000000000000000000000000000000000600082015250565b60006124e7600583612408565b91506124f2826124b1565b600582019050919050565b60006125098285612413565b91506125148261246d565b9150612520828461249a565b60208201915061252f826124da565b91508190509392505050565b7f4f776e61626c653a206e6577206f776e657220697320746865207a65726f206160008201527f6464726573730000000000000000000000000000000000000000000000000000602082015250565b6000612597602683611b45565b91506125a28261253b565b604082019050919050565b600060208201905081810360008301526125c68161258a565b9050919050565b7f4552433732313a207472616e736665722066726f6d20696e636f72726563742060008201527f6f776e6572000000000000000000000000000000000000000000000000000000602082015250565b6000612629602583611b45565b9150612634826125cd565b604082019050919050565b600060208201905081810360008301526126588161261c565b9050919050565b7f4552433732313a207472616e7366657220746f20746865207a65726f2061646460008201527f7265737300000000000000000000000000000000000000000000000000000000602082015250565b60006126bb602483611b45565b91506126c68261265f565b604082019050919050565b600060208201905081810360008301526126ea816126ae565b9050919050565b7f4f776e61626c653a2063616c6c6572206973206e6f7420746865206f776e6572600082015250565b6000612727602083611b45565b9150612732826126f1565b602082019050919050565b600060208201905081810360008301526127568161271a565b9050919050565b7f4552433732313a20617070726f766520746f2063616c6c657200000000000000600082015250565b6000612793601983611b45565b915061279e8261275d565b602082019050919050565b600060208201905081810360008301526127c281612786565b9050919050565b7f4552433732313a207472616e7366657220746f206e6f6e20455243373231526560008201527f63656976657220696d706c656d656e7465720000000000000000000000000000602082015250565b6000612825603283611b45565b9150612830826127c9565b604082019050919050565b6000602082019050818103600083015261285481612818565b9050919050565b600061286682611bec565b915061287183611bec565b9250828203905081811115612889576128886123a5565b5b92915050565b600081519050919050565b600082825260208201905092915050565b60006128b68261288f565b6128c0818561289a565b93506128d0818560208601611b56565b6128d981611b80565b840191505092915050565b60006080820190506128f96000830187611c81565b6129066020830186611c81565b6129136040830185611d97565b818103606083015261292581846128ab565b905095945050505050565b60008151905061293f81611aab565b92915050565b60006020828403121561295b5761295a611a75565b5b600061296984828501612930565b91505092915050565b7f4552433732313a206d696e7420746f20746865207a65726f2061646472657373600082015250565b60006129a8602083611b45565b91506129b382612972565b602082019050919050565b600060208201905081810360008301526129d78161299b565b9050919050565b7f4552433732313a20746f6b656e20616c7265616479206d696e74656400000000600082015250565b6000612a14601c83611b45565b9150612a1f826129de565b602082019050919050565b60006020820190508181036000830152612a4381612a07565b905091905056fea264697066735822122028b530a3d36aeac0ea6d4b1452eb32bb8e556f554e4cfca7a9b6c767b1858dc264736f6c63430008110033",
  "linkReferences": {},
  "deployedLinkReferences": {}
}